:200000000C94E2000C94EE070C94C7070C940A010C940A010C940A010C9415080C940A01F2
:200020000C940A010C940A010C940A010C940A010C940A010C940A010C940A010C940A0168
:200040000C947D070C940A010C944B070C9425070C940A010C940A010C940A010C940A0167
:200060000C940A010C940A010000000023002600290000000000240027002A000000000043
:20008000250028002B0004040404040404040202020202020303030303030102040810206B
:2000A0004080010204081020010204081020000000080002010000030407000000000000E9
:2000C0000000005EBCE2613FDD83C29C7E20A3FD1F419DC3217FFCA2401E5F01E3BD3E608E
:2000E00082DC237D9FC1421CFEA0E1BF5D0380DE3C62BEE0025CDF81633D7C22C09E1D4352
:20010000A1FF4618FAA427799BC584DA3866E5BB5907DB856739BAE406581947A5FB7826AD
:20012000C49A653BD987045AB8E6A7F91B45C6987A24F8A6441A99C7257B3A6486D85B0511
:20014000E7B98CD2306EEDB3510F4E10F2AC2F7193CD114FADF3702ECC92D38D6F31B2EC6D
:200160000E50AFF1134DCE90722C6D33D18F0C52B0EE326C8ED0530DEFB1F0AE4C1291CFD1
:200180002D73CA947628ABF517490856B4EA6937D58B5709EBB536688AD495CB2977F4AA2D
:2001A0004816E9B7550B88D6346A2B7597C94A14F6A8742AC896154BA9F7B6E80A54D78991
:2001C0006B35360811241FBECFEFD8E0DEBFCDBF12E0A0E0B1E0E6EDF2E202C005900D92F0
:2001E000AA30B107D9F723E0AAE0B2E001C01D92AD34B207E1F710E0C2EED0E004C02197D0
:20020000FE010E94430CC13ED107C9F70E946C080C9469110C94000080911D0290911E0216
:20022000019690931E0280931D0208950895CF92DF92EF92FF920F931F93CF93DF936C01FF
:200240007A018B01C0E0D0E0CE15DF0589F0D8016D918D01D601ED91FC910190F081E02DB1
:20026000C6010995892B11F47E0102C02196ECCFC701DF91CF911F910F91FF90EF90DF9048
:20028000CF900895FC01918D828D981761F0828DDF01A80FB11D5D968C91928D9F5F9F7385
:2002A000928F90E008958FEF9FEF0895FC01918D828D981731F0828DE80FF11D858D90E0D7
:2002C00008958FEF9FEF0895FC01918D228D892F90E0805C9F4F821B91098F739927089586
:2002E00084E992E00E94640121E0892B09F420E0822F0895FC01848DDF01A80FB11DA35AA8
:20030000BF4F2C91848D90E001968F739927848FA689B7892C93A089B1898C9180648C9374
:20032000938D848D981306C00288F389E02D80818F7D80830895EF92FF920F931F93CF9393
:20034000DF93EC0181E0888F9B8D8C8D981305C0E889F989808185FD24C0F62E0B8D10E00F
:200360000F5F1F4F0F731127E02E8C8DE8120CC00FB607FCFACFE889F989808185FFF5CF2D
:20038000CE010E947A01F1CF8B8DFE01E80FF11DE35AFF4FF0820B8FEA89FB898081806224
:2003A00007C0EE89FF896083E889F98980818064808381E090E0DF91CF911F910F91FF9039
:2003C000EF900895CF93DF93EC01888D8823C9F0EA89FB89808185FD05C0A889B9898C91F8
:2003E00086FD0FC00FB607FCF5CF808185FFF2CFA889B9898C9185FFEDCFCE010E947A011D
:20040000E7CFDF91CF91089580E090E0892B29F00E94700181110C940000089590E0FC01CD
:20042000E255FF4F3491FC01E656FF4F2491FC01EA57FF4FE491EE2309F43BC0332339F1AC
:20044000333091F038F43130A9F0323001F584B58F7D12C0373091F03830A1F03430B9F431
:20046000809180008F7D03C0809180008F77809380000DC084B58F7784BD09C08091B0001B
:200480008F7703C08091B0008F7D8093B000F0E0EE0FFF1FE458FF4FA591B4918FB7F89441
:2004A000EC91611103C020952E2301C02E2B2C938FBF0895CF93DF9390E0FC01E656FF4FF5
:2004C0002491FC01EA57FF4F8491882361F190E0880F991FFC01EE58FF4FC591D491FC01C1
:2004E000E458FF4FA591B491611109C09FB7F8948881209582238883EC912E230BC0623041
:2005000061F49FB7F8943881822F809583238883EC912E2B2C939FBF06C08FB7F894E88180
:200520002E2B28838FBFDF91CF9108958230910538F0880F991F880F991F05970197F1F7D2
:20054000089561E087E00E940E028FEC93E00E94960260E087E00E940E028AEA95E00C949A
:20056000960261E087E00E940E028AEF90E00E94960260E087E00E940E028AEA95E00C9484
:2005800096023FB7F8948091170290911802A0911902B0911A0226B5A89B05C02F3F19F0D9
:2005A0000196A11DB11D3FBFBA2FA92F982F8827820F911DA11DB11DBC01CD0142E0660FF6
:2005C000771F881F991F4A95D1F708958F929F92AF92BF92CF92DF92EF92FF926B017C0131
:2005E0000E94C1024B015C01C114D104E104F104F1F00E94C102DC01CB0188199909AA0984
:20060000BB09883E9340A105B10570F321E0C21AD108E108F10888EE880E83E0981EA11C44
:20062000B11CC114D104E104F10419F7DDCFFF90EF90DF90CF90BF90AF909F908F90089558
:20064000FC0190810180F281E02DF8948181892B81832281892F809528232283A7E0B0E0CE
:200660001197F1F7218182238183A3E2B0E01197F1F780817894EFECF0E03197F1F79823D7
:2006800081E009F480E00895FC0190810180F281E02D892F809560FF12C0F894228182231E
:2006A00082838181892B8183A3E2B0E01197F1F78281982B9283789487ED90E011C0F894AE
:2006C0002281822382838181892B8183AFEFB0E01197F1F78281982B928378948FE090E08F
:2006E0000197F1F70895CF92DF92EF92FF920F931F93CF93DF931F92CDB7DEB76C01E62E86
:2007000008E010E0FF24F39461E08F2D8E2109F460E0C60149830E944403FF0C015011097C
:2007200049810115110581F7411115C0F894D6011196ED91FC91129791818C918095892376
:2007400081831196ED91FC91129792818C9180958923828378940F90DF91CF911F910F9179
:20076000FF90EF90DF90CF900895CF92DF92EF92FF920F931F93CF93DF931F92CDB7DEB72A
:200780008C01F62E40E065E579830E947303CF2C7981D72E760188E0E80EF11CF601619165
:2007A0006F0140E0C8010E947303CE14DF04B1F70F90DF91CF911F910F91FF90EF90DF901F
:2007C000CF900895FC0190810180F281E02DF8948181292F20958223818378948DE743E027
:2007E00050E0815021F1DA011197F1F730813923C1F3F8948281822382838181892B8183C7
:200800007894ABE7B7E01197F1F7F894818128232183A3E1B1E01197F1F78081982381E0D4
:2008200009F080E07894E3E6F6E03197F1F708950F931F93CF93DF93EC01162F60E0812F1D
:200840000E945A02612F70E0FB01E656FF4FE491E883FB01EA57FF4FE491F0E0EE0FFF1F69
:20086000E859FF4F859194919A8389831B861D861C86FE013B968E010D5F1F4F1292E017CB
:20088000F107E1F7DF91CF911F910F910895009769F0FC0101900020E9F73197AF01481B72
:2008A000590BBC0184E992E00C94170180E090E00895CF93DF930E944704EC018AE191E089
:2008C0000E9447048C0F9D1FDF91CF9108958F929F92AF92BF920F931F93CF93DF93CDB7D7
:2008E000DEB7A1970FB6F894DEBF0FBECDBF19A2423008F44AE08E010F5D1F4F842E912CB9
:20090000A12CB12CA50194010E94EE0BE62FB901CA0101501109EA3014F4E05D01C0E95CED
:20092000D801EC93232B242B252B61F7C8010E944704A1960FB6F894DEBF0FBECDBFDF9176
:20094000CF911F910F91BF90AF909F908F900895CF92DF92EF92FF92CF93DF936B017C01CD
:20096000E0919402F09195020190F081E02D6DE284E992E00995EC0166277727CB016C1914
:200980007D098E099F094AE00E9467048C0F9D1FDF91CF91FF90EF90DF90CF9008950C941B
:2009A0004704CF93DF93BC01990F880B990B97FF03C00E94A80403C04AE00E946704EC01EE
:2009C0008AE191E00E9447048C0F9D1FDF91CF9108954F925F926F927F928F929F92AF9213
:2009E000BF92CF92DF92EF92FF92CF93DF936B017C01B42E9B01AC010E94870E882319F0EF
:200A00008DE191E01AC026013701E89477F82FEF3FEF4FE75FE7C301B2010E94870E8111CB
:200A200010C02FEF3FEF4FE75FE7C301B2010E94B60C181634F481E291E00E944704EC013F
:200A40008EC02FEF3FEF4FE75FE4C701B6010E94150E18161CF485E291E0EFCF2FEF3FEF1F
:200A60004FE75FECC701B6010E94B60C87FDF3CF20E030E0A901C701B6010E94B60C87FFA9
:200A800011C0E0919402F09195020190F081E02D6DE284E992E00995EC01F7FAF094F7F83A
:200AA000F09402C0C0E0D0E0A12C60E070E080E09FE3AB1440F420E030E040E251E40E9465
:200AC000BB0CA394F6CF9B01AC01C701B6010E944A0C2B013C010E94340D6B017C010E94BC
:200AE000630D9B01AC01C301B2010E94490C2B013C014AE0C701B6010E946704C80FD91FE1
:200B0000BB2031F085E791E00E944704C80FD91FFB2CFF2021F120E030E040E251E4C301BD
:200B2000B2010E941A0E2B013C010E94340D4B01A12CB12C4AE0C501B4010E946704C80F6D
:200B4000D91FC501B4010E94630D9B01AC01C301B2010E94490C2B013C01FA94DACF8AE14E
:200B600091E00E9447048C0F9D1FDF91CF91FF90EF90DF90CF90BF90AF909F908F907F9029
:200B80006F905F904F900895CF93DF93EC0183FF03C00E94B10202C00E94A102C2FF03C005
:200BA0000E94B10202C00E94A102C1FF03C00E94B10202C00E94A102C0FF03C00E94B10223
:200BC00002C00E94A102DF93CF9389E291E09F938F938BE392E09F938F930E94910E0F90F6
:200BE0000F900F900F900F900F90DF91CF910895CF93DF9310923A02109239028AE090E004
:200C0000909338028093370280919302A82FA695A695A695B0E0B0933402A0933302877095
:200C200060912F027091300240912D0250912E02E0912B02F0912C0290E09D01280F391F64
:200C4000260F371F240F351F2E0F3F1F260F371F240F351F21703327309328022093270221
:200C6000880F991F820F931F90933202809331022091350230913602265F3F4FA20FB31FCE
:200C80008A0F9B1F860F971F840F951F8E0F9F1F680F791F460F571F4F70552750932A02F0
:200CA00040932902C3E0D0E08091390290913A020E94C40580913702909138020E94C405BF
:200CC00080913502909136020E94C40580913302909134020E94C405809131029091320267
:200CE0000E94C40580912F02909130020E94C40580912D0290912E020E94C40580912B024F
:200D000090912C020E94C40580912F02909130020E94C40580912D0290912E020E94C4051D
:200D20008091290290912A020E94C40564E170E080E090E00E94E602219709F0B5CFDF912B
:200D4000CF910895CF92DF92EF92FF92CF93DF93C0908F02D0909002E0909102F0909202F4
:200D6000C701B6010E942D0DCAE0D0E0CB01BE010E94DA0B7093300260932F0290932E0200
:200D800080932D0220E030E040E251E4C701B6010E941A0E0E942D0DCB01BE010E94DA0B73
:200DA00090932C0280932B028EE090E09093360280933502DF91CF91FF90EF90DF90CF9073
:200DC0000C94F805CF92DF92EF92FF92CF93DF93C0908B02D0908C02E0908D02F0908E02E4
:200DE000C701B6010E942D0DCAE0D0E0CB01BE010E94DA0B9B012B5F3F4F309330022093D0
:200E00002F0290932E0280932D0220E030E040E251E4C701B6010E941A0E0E942D0DCB01B4
:200E2000BE010E94DA0B90932C0280932B021092360210923502DF91CF91FF90EF90DF90DB
:200E4000CF900C94F8050E948C0E1F920F920FB60F9211242F933F934F935F936F937F93F1
:200E60008F939F93AF93BF93EF93FF9384E992E00E947A01FF91EF91BF91AF919F918F918A
:200E80007F916F915F914F913F912F910F900FBE0F901F9018951F920F920FB60F9211248E
:200EA0002F938F939F93EF93FF93E091A402F091A5028081E091AA02F091AB0282FD12C02C
:200EC00090818091AD028F5F8F732091AE02821751F0E091AD02F0E0EC56FD4F958F809361
:200EE000AD0201C08081FF91EF919F918F912F910F900FBE0F901F9018951F920F920FB6E3
:200F00000F9211242F933F938F939F93AF93BF938091130290911402A0911502B091160281
:200F20003091120223E0230F2D3720F40196A11DB11D05C026E8230F0296A11DB11D209330
:200F400012028093130290931402A0931502B09316028091170290911802A0911902B09185
:200F60001A020196A11DB11D8093170290931802A0931902B0931A02BF91AF919F918F913C
:200F80003F912F910F900FBE0F901F9018951F920F920FB60F9211242F933F934F935F9305
:200FA0006F937F938F939F93AF93BF93EF93FF93E0910201F09103010995FF91EF91BF912A
:200FC000AF919F918F917F916F915F914F913F912F910F900FBE0F901F9018951F920F9258
:200FE0000FB60F9211242F933F934F935F936F937F938F939F93AF93BF93EF93FF93E0916D
:201000000001F09101010995FF91EF91BF91AF919F918F917F916F915F914F913F912F914E
:201020000F900FBE0F901F9018951F920F920FB60F9211248F93EF93FF930FB6F894A89598
:2010400080916000886180936000109260000FBEA895E0E6F0E080818F7B8083FF91EF9103
:201060008F910F900FBE0F901F901895E4E9F2E01382128288EE93E0A0E0B0E08483958309
:20108000A683B7838EE091E09183808385EC90E09587848784EC90E09787868780EC90E008
:2010A000918B808B81EC90E0938B828B82EC90E0958B848B86EC90E0978B868B118E128EA0
:2010C000138E148E6AE08FE393E00E9418046AE081E393E00C941804CF93DF93CDB7DEB716
:2010E000A5970FB6F894DEBF0FBECDBF789484B5826084BD84B5816084BD85B5826085BD4C
:2011000085B5816085BD80916E00816080936E001092810080918100826080938100809155
:201120008100816080938100809180008160809380008091B10084608093B1008091B00089
:2011400081608093B00080917A00846080937A0080917A00826080937A0080917A00816089
:2011600080937A0080917A00806880937A001092C100E091A402F091A50282E08083E0916A
:20118000A402F091A5021082E091A002F091A1021082E091A202F091A30280E180831092E5
:2011A000AC02E091A802F091A90286E08083E091A602F091A702808180618083E091A60290
:2011C000F091A702808188608083E091A602F091A702808180688083E091A602F091A70287
:2011E00080818F7D808360ED77E080E090E00E94E6028CE291E00E9459048CE591E00E947F
:20120000590487E791E00E94CF0484E690E00E94D10482E991E00E94CF0485E690E00E94FE
:20122000D1048CE291E00E94590461E08DE00E945A0260E08DE00E940E0261E084E00E94A9
:201240005A0260E084E00E940E0284E68093930261E087E00E945A02CE0104966C015E01EF
:201260009BE1A90EB11CE7E0EA0DEBA34E01FFE08F0E911C89E0880D8CA368EE73E080E074
:2012800090E00E94E60268EE73E080E090E00E94E60261E08DE00E940E028EE480937C00F0
:2012A00062E070E080E090E00E94E60280917A00806480937A0080917A0086FDFCCF2091BC
:2012C00078008091790030E0382B032E000C440B550B64EB7BE281E190E00E94100C2093BE
:2012E0002302309324024093250250932602CA01B9010E94650D20E030E04AE754E40E9427
:20130000BB0C2B013C0160E082E00E945A0261E084E00E945A0261E084E00E940E0268EEAD
:2013200073E080E090E00E94E60210921E0210921D028CE091E09093010180930001809156
:2013400069008C7F826080936900E89A62EA70E080E090E00E94E60220911D0230911E0292
:2013600010921E0210921D0280911B0290911C02820F931F8217930711F09695879590939C
:201380001C0280931B0260E084E00E940E02E89886E191E0909301018093000160E082E076
:2013A0000E945A0260911B0270911C0280E090E00E94630D60931F027093200280932102B1
:2013C000909322028EE0E1E3F3E0DE01119601900D928A95E1F78E858111FEC0CE0101964B
:2013E0000E94E203882309F4F7C040E060EFCE0101960E94730301E0F12CE12C11E0CE014F
:2014000001960E942003682FCE0101966DA30E9420036DA1613019F48130B1F433C02F2D4D
:2014200030E068131AC08C85181738F4F601E20FF31F8081802341F402C0181729F060E0BE
:20144000193050F41D8708C0F601EF0DF11D8081802B808361E009C0E12EF601E20FF31FD0
:201460009081802F809589238083CE0101960E9444031F5F000F11F4F39401E097E09F1574
:2014800008F0BDCF113408F4A7C0EC86E11002C081E08E878C81882309F49EC0D601CE01CC
:2014A0008396F5012D912193E817F907D9F7D501E0E0FBA1FA1739F08D91E827F0E0EE5332
:2014C000FF4FE491F6CF8AA1E81395C08B8D823239F0883229F0803109F08DC011E001C098
:2014E00010E0CE0101960E94E203B501CE0101960E94B50341E064E4CE0101960E947303B2
:2015000068EE73E080E090E00E94E602CE0101960E94E203B501CE0101960E94B50340E045
:201520006EEBCE0101960E947303740148E0242E312C41E000E0CE0101964DA30E9420036C
:201540004DA18111042B440F81E0281A310899F7F70101937F01FCA1FE11E8CF688970E06D
:20156000762F66278F85682B112389F023E0660F771F2A95E1F78E898031A9F42D898CE0B9
:2015800090E0821B9109607F680F791F0CC08B89807611F4687F07C0803211F46C7F03C0C8
:2015A000803409F46E7F072E000C880B990B0E94650D20E030E040E85DE30E941A0E7B0143
:2015C0008C019B01AC010E94870E8823D1F0E12CF12C06EC12EC15C01C861E861D86FE01BB
:2015E0003C961292EC15FD05E1F76AEF70E080E090E00E94E6028AEFE82E9EE3F92E06EF6B
:2016000012E482E991E00E94CF0485E690E00E94D10489EA91E00E94CF0442E050E0B701CE
:20162000C8010E94E90484E680939302C701D80180938B0290938C02A0938D02B0938E02B9
:2016400080911F0290912002A0912102B091220280938F0290939002A0939102B093920266
:201660000E94E20668EE73E080E090E00E94E6020E94A20668EE73E080E090E00E94E60290
:2016800085E68093930260911F0270912002809121029091220220E030E04AE754E40E946E
:2016A000BB0C60938B0270938C0280938D0290938E020E94E20668EE73E080E090E00E9458
:2016C000E60240928F025092900260929102709292020E94A20660E08DE00E940E0268EE31
:2016E00073E080E090E00E94E60261E08DE00E940E028DEB91E00E94CF0460912302709168
:201700002402809125029091260297FF03C00E94A80403C04AE00E9467048AE191E00E9403
:2017200047048AEC91E00E94CF0442E050E0C301B2010E94E9048CE291E00E94590487E75E
:2017400091E00E94CF0484E690E00E94D10489ED91E00E94CF0460911F02709120028091B0
:2017600021029091220240E050E00E94E90481EF91E00E94CF0460911F0270912002809186
:2017800021029091220220E030E04AE754E40E94BB0C42E050E00E94E90460E08DE00E94CF
:2017A0000E0268EE73E080E090E00E94E6020E94040263CD97FB072E16F4009407D077FD8E
:2017C00009D00E942F0C07FC05D03EF4909581959F4F0895709561957F4F0895A1E21A2E52
:2017E000AA1BBB1BFD010DC0AA1FBB1FEE1FFF1FA217B307E407F50720F0A21BB30BE40BE1
:20180000F50B661F771F881F991F1A9469F760957095809590959B01AC01BD01CF01089598
:20182000052E97FB1EF400940E94270C57FD07D00E94EE0B07FC03D04EF40C94270C5095D2
:201840004095309521953F4F4F4F5F4F089590958095709561957F4F8F4F9F4F0895AA1B90
:20186000BB1B51E107C0AA1FBB1FA617B70710F0A61BB70B881F991F5A95A9F780959095D0
:20188000BC01CD010895EE0FFF1F0590F491E02D09945058BB27AA270E94610C0C94DB0D4F
:2018A0000E94CD0D38F00E94D40D20F039F49F3F19F426F40C94CA0D0EF4E095E7FB0C944F
:2018C000C40DE92F0E94EC0D58F3BA17620773078407950720F079F4A6F50C940E0E0EF488
:2018E000E0950B2EBA2FA02D0B01B90190010C01CA01A0011124FF27591B99F0593F50F480
:20190000503E68F11A16F040A22F232F342F4427585FF3CF469537952795A795F04053955F
:20192000C9F77EF41F16BA0B620B730B840BBAF09150A1F0FF0FBB1F661F771F881FC2F782
:201940000EC0BA0F621F731F841F48F4879577956795B795F7959E3F08F0B0CF9395880FEF
:2019600008F09927EE0F9795879508950E94A00D08F481E008950E94CF0C0C94DB0D0E94DD
:20198000D40D58F00E94CD0D40F029F45F3F29F00C94C40D51110C940F0E0C94CA0D0E94F5
:2019A000EC0D68F39923B1F3552391F3951B550BBB27AA2762177307840738F09F5F5F4F62
:2019C000220F331F441FAA1FA9F335D00E2E3AF0E0E832D091505040E695001CCAF72BD0C3
:2019E000FE2F29D0660F771F881FBB1F261737074807AB07B0E809F0BB0B802DBF01FF27CF
:201A000093585F4F3AF09E3F510578F00C94C40D0C940F0E5F3FE4F3983ED4F38695779501
:201A20006795B795F7959F5FC9F7880F911D9695879597F90895E1E0660F771F881FBB1F0E
:201A4000621773078407BA0720F0621B730B840BBA0BEE1F88F7E09508950E94340D68946B
:201A6000B1110C940F0E08950E94F40D88F09F5798F0B92F9927B751B0F0E1F0660F771F85
:201A8000881F991F1AF0BA95C9F714C0B13091F00E940E0EB1E008950C940E0E672F782FB3
:201AA0008827B85F39F0B93FCCF3869577956795B395D9F73EF490958095709561957F4F10
:201AC0008F4F9F4F0895E89409C097FB3EF490958095709561957F4F8F4F9F4F9923A9F070
:201AE000F92F96E9BB279395F695879577956795B795F111F8CFFAF4BB0F11F460FF1BC07A
:201B00006F5F7F4F8F4F9F4F16C0882311F096E911C0772321F09EE8872F762F05C06623B1
:201B200071F096E8862F70E060E02AF09A95660F771F881FDAF7880F9695879597F90895AA
:201B4000990F0008550FAA0BE0E8FEEF16161706E807F907C0F012161306E407F50798F06F
:201B6000621B730B840B950B39F40A2661F0232B242B252B21F408950A2609F4A140A695A5
:201B80008FEF811D811D089597F99F6780E870E060E008959FEF80EC089500240A9416163E
:201BA000170618060906089500240A9412161306140605060895092E0394000C11F48823EF
:201BC00052F0BB0F40F4BF2B11F460FF04C06F5F7F4F8F4F9F4F089557FD9058440F551FAB
:201BE00059F05F3F71F04795880F97FB991F61F09F3F79F087950895121613061406551FC0
:201C0000F2CF4695F1DF08C0161617061806991FF1CF86957105610508940895E894BB2723
:201C200066277727CB0197F908950E94A00D08F48FEF08950E942D0E0C94DB0D0E94CD0D39
:201C400038F00E94D40D20F0952311F00C94C40D0C94CA0D11240C940F0E0E94EC0D70F338
:201C6000959FC1F3950F50E0551F629FF001729FBB27F00DB11D639FAA27F00DB11DAA1F1D
:201C8000649F6627B00DA11D661F829F2227B00DA11D621F739FB00DA11D621F839FA00D71
:201CA000611D221F749F3327A00D611D231F849F600D211D822F762F6A2F11249F57504013
:201CC0009AF0F1F088234AF0EE0FFF1FBB1F661F771F881F91505040A9F79E3F510580F049
:201CE0000C94C40D0C940F0E5F3FE4F3983ED4F3869577956795B795F795E7959F5FC1F777
:201D0000FE2B880F911D9695879597F908950E94A00D880B990B089581E090E0F8940C94C1
:201D20006911AEE0B0E0E7E9FEE00C9440110D891E8986E08C831A8309838FEF9FE79E836C
:201D40008D83AE01475E5F4F6F89788DCE0101960E94B40E2F813885F801E20FF31F1082AF
:201D60002E96E4E00C945C11ACE0B0E0EAEBFEE00C9432117C016B018A01FC01178216827A
:201D8000838181FFBDC1CE0101964C01F7019381F60193FD859193FF81916F01882309F429
:201DA000ABC1853239F493FD859193FF81916F01853229F4B70190E00E949C10E7CF512C9C
:201DC000312C20E02032A0F48B3269F030F4803259F0833269F420612CC08D3239F0803371
:201DE00039F4216026C02260246023C0286021C027FD27C030ED380F3A3078F426FF06C0CD
:201E0000FAE05F9E300D1124532E13C08AE0389E300D1124332E20620CC08E3221F426FDCC
:201E20006BC1206406C08C3611F4206802C0883641F4F60193FD859193FF81916F018111E5
:201E4000C1CF982F9F7D9554933028F40C5F1F4FFFE3F9830DC0833631F0833771F0833596
:201E600009F05BC022C0F801808189830E5F1F4F44244394512C540115C03801F2E06F0E1D
:201E8000711CF801A080B18026FF03C0652D70E002C06FEF7FEFC5012C870E9491102C012A
:201EA00083012C852F77222E17C03801F2E06F0E711CF801A080B18026FF03C0652D70E0F7
:201EC00002C06FEF7FEFC5012C870E9486102C012C852068222E830123FC1BC0832D90E06F
:201EE00048165906B0F4B70180E290E00E949C103A94F4CFF50127FC859127FE81915F0152
:201F0000B70190E00E949C1031103A94F1E04F1A51084114510471F7E5C0843611F0893678
:201F200039F5F80127FF07C060817181828193810C5F1F4F08C060817181072E000C880B5B
:201F4000990B0E5F1F4F2F76722E97FF09C090958095709561957F4F8F4F9F4F2068722E67
:201F60002AE030E0A4010E94D410A82EA81844C0853729F42F7EB22E2AE030E025C0F22FFC
:201F8000F97FBF2E8F36C1F018F4883579F0B4C0803719F0883721F0AFC02F2F2061B22E02
:201FA000B4FE0DC08B2D8460B82E09C024FF0AC09F2F9660B92E06C028E030E005C020E11B
:201FC00030E002C020E132E0F801B7FE07C060817181828193810C5F1F4F06C0608171814B
:201FE00080E090E00E5F1F4FA4010E94D410A82EA818FB2DFF777F2E76FE0BC0372D3E7FCA
:20200000A51450F474FE0AC072FC08C0372D3E7E05C0BA2C372D03C0BA2C01C0B52C34FFA4
:202020000DC0FE01EA0DF11D8081803311F4397E09C032FF06C0B394B39404C0832F86789D
:2020400009F0B39433FD13C030FF06C05A2CB31418F4530C5B18B32CB31468F4B70180E201
:2020600090E03C870E949C10B3943C85F5CFB31410F43B1801C0312C34FF12C0B70180E3B7
:2020800090E03C870E949C103C8532FF17C031FD03C088E790E002C088E590E0B7010CC003
:2020A000832F867859F031FF02C08BE201C080E237FD8DE2B70190E00E949C10A51438F4A7
:2020C000B70180E390E00E949C105A94F7CFAA94F401EA0DF11D8081B70190E00E949C10C4
:2020E000A110F5CF332009F451CEB70180E290E00E949C103A94F6CFF7018681978102C0B8
:202100008FEF9FEF2C96E2E10C944E11FC010590615070400110D8F7809590958E0F9F1FC7
:202120000895FC016150704001900110D8F7809590958E0F9F1F08950F931F93CF93DF93D9
:20214000FB01238121FD03C08FEF9FEF28C022FF16C046815781248135814217530744F42E
:20216000A081B1819D012F5F3F4F318320838C93268137812F5F3F4F3783268310C0EB0142
:20218000092F182F0084F185E02D0995892BE1F68E819F8101969F838E83812F902FDF91B8
:2021A000CF911F910F910895FA01AA27283051F1203181F1E8946F936E7F6E5F7F4F8F4FC5
:2021C0009F4FAF4FB1E03ED0B4E03CD0670F781F891F9A1FA11D680F791F8A1F911DA11D84
:2021E0006A0F711D811D911DA11D20D009F468943F912AE0269F11243019305D3193DEF6A3
:20220000CF010895462F4770405D4193B3E00FD0C9F7F6CF462F4F70405D4A3318F0495DC1
:2022200031FD4052419302D0A9F7EACFB4E0A6959795879577956795BA95C9F700976105B4
:20224000710508959B01AC010A2E06945795479537952795BA95C9F7620F731F841F951F97
:20226000A01D08952F923F924F925F926F927F928F929F92AF92BF92CF92DF92EF92FF92C6
:202280000F931F93CF93DF93CDB7DEB7CA1BDB0B0FB6F894DEBF0FBECDBF09942A883988DB
:2022A00048885F846E847D848C849B84AA84B984C884DF80EE80FD800C811B81AA81B981BA
:2022C000CE0FD11D0FB6F894DEBF0FBECDBFED010895F894FFCF1601160100004D03800009
:2022E000000000009B011701640142015601E2010D0A006E616E00696E66006F7666002547
:2023000078003D3D3D3D3D3D3D3D3D3D3D3D3D3D3D3D3D3D3D3D3D3D3D3D3D3D3D3D3D3D1F
:202320003D3D3D3D3D3D3D3D3D3D3D3D3D3D3D3D3D00537461727420426F64656E6665753A
:20234000636874652D53656E736F722E0053656E736F722D49442028426F64656E66657560
:2023600063687465293A200053656E736F722D494420284261747465726965293A200054B3
:20238000656D70657261747572283138423230293A20005643432028696E7429203D20009B
:2023A0005643432028666C6F617429203D2000426F64656E666575636874652028696E74DE
:2023C000292020203D2000426F64656E666575636874652028666C6F617429203D20000047
:2023E000FFFFFFFFFFFFFFFFFFFFFFFFFFFFFFFFFFFFFFFFFFFFFFFFFFFFFFFFFFFFFFFFFD
:202400000000000000000000000000000000000000000000000000000000000000000000BC
:2024200000000000000000000000000000000000000000000000000000000000000000009C
:2024400000000000000000000000000000000000000000000000000000000000000000007C
:207800000C94343C0C94513C0C94513C0C94513C0C94513C0C94513C0C94513C0C94513C1D
:207820000C94513C0C94513C0C94513C0C94513C0C94513C0C94513C0C94513C0C94513CE0
:207840000C94513C0C94513C0C94513C0C94513C0C94513C0C94513C0C94513C0C94513CC0
:207860000C94513C0C94513C11241FBECFEFD8E0DEBFCDBF11E0A0E0B1E0ECE9FFE702C07E
:2078800005900D92A230B107D9F712E0A2E0B1E001C01D92AD30B107E1F70E942D3D0C94CC
:2078A000CC3F0C94003C982F9595959595959595905D8F708A307CF0282F295A8091C000B5
:2078C00085FFFCCF9093C6008091C00085FFFCCF2093C6000895282F205DF0CF982F8091CF
:2078E000C00085FFFCCF9093C6000895EF92FF920F931F93EE24FF2487018091C00087FD7B
:2079000017C00894E11CF11C011D111D81E4E81682E4F8068FE0080780E0180770F3E09106
:207920000401F091050109958091C00087FFE9CF8091C6001F910F91FF90EF9008950E949A
:20794000763C982F8091C00085FFFCCF9093C60091362CF490330CF09053892F08959755DB
:20796000892F08951F930E949F3C182F0E949F3C1295107F810F1F9108951F93182F882308
:2079800021F00E94763C1150E1F71F9108951F93182F0E94763C803249F0809103018F5FC1
:2079A000809303018530C1F01F9108958091C00085FFFCCF84E18093C6008091C00085FF4A
:2079C000FCCF1093C6008091C00085FFFCCF80E18093C6001F910895E0910401F0910501CF
:2079E00009951F9108950E94763C803241F0809103018F5F80930301853081F00895809177
:207A0000C00085FFFCCF84E18093C6008091C00085FFFCCF80E18093C6000895E0910401AC
:207A2000F09105010995089540E951E08823A1F02D9A28EE33E0FA013197F1F72150304072
:207A4000D1F72D9828EE33E0FA013197F1F721503040D1F7815061F708953F924F925F92B3
:207A60006F927F928F929F92AF92BF92CF92DF92EF92FF920F931F93CF93DF93000080E1A3
:207A80008093C4001092C50088E18093C10086E08093C2005098589A259A81E00E94143D43
:207AA00024E1F22E9EE1E92E85E9D82E0FE0C02E10E1B12EAA24A394B1E49B2EA6E58A2E44
:207AC000F2E57F2EE0E26E2E79E4572E63E5462E50E5352E0E94763C8033B1F18133B9F187
:207AE000803409F46FC0813409F476C0823409F485C0853409F488C0803531F1823521F128
:207B0000813511F1853509F485C0863509F48DC0843609F496C0843709F403C1853709F46A
:207B200072C1863709F466C0809103018F5F80930301853079F6E0910401F0910501099559
:207B40000E94763C803351F60E94F33CC3CF0E94763C803249F78091C00085FFFCCFF0928C
:207B6000C6008091C00085FFFCCF9092C6008091C00085FFFCCF8092C6008091C00085FFEA
:207B8000FCCF7092C6008091C00085FFFCCF6092C6008091C00085FFFCCF5092C6008091A1
:207BA000C00085FFFCCF4092C6008091C00085FFFCCF3092C6008091C00085FFFCCFB09214
:207BC000C60088CF0E94763C863808F4BDCF0E94763C0E94F33C7ECF0E94763C803809F473
:207BE0009CC0813809F40BC1823809F43CC1883909F48FC080E00E94C73C6CCF84E10E949F
:207C0000BD3C0E94F33C66CF85E00E94BD3C0E94F33C60CF0E94763C809306010E94763CA3
:207C2000809307010E94F33C55CF0E94763C803309F41DC183E00E94BD3C80E00E94C73C4F
:207C400049CF0E94763C809309020E94763C8093080280910C028E7F80930C020E94763C88
:207C6000853409F415C18091080290910902892B89F000E010E00E94763CF801E85FFE4F53
:207C800080830F5F1F4F80910802909109020817190788F30E94763C803209F045CF8091E0
:207CA0000C0280FF01C16091060170910701660F771F7093070160930601A0910802B091E8
:207CC00009021097C9F0E8E0F1E09B01AD014E0F5F1FF999FECF32BD21BD819180BDFA9A6C
:207CE000F99A2F5F3F4FE417F50799F76A0F7B1F70930701609306018091C00085FFFCCF16
:207D0000F092C6008091C00085FFFCCFB092C600E1CE83E00E94C73CDDCE82E00E94C73C8A
:207D2000D9CE0E94763C809309020E94763C809308028091060190910701880F991F909306
:207D40000701809306010E94763C853409F4A6C080910C028E7F80930C020E94763C80323E
:207D600009F0B8CE8091C00085FFFCCFF092C600609108027091090261157105B9F140E05F
:207D800050E080910C02A82FA170B82FB27011C0BB2309F45CC0E0910601F0910701319613
:207DA000F0930701E09306014F5F5F4F46175707E8F4AA2369F3F999FECF209106013091CA
:207DC000070132BD21BDF89A90B58091C00085FFFCCF9093C6002F5F3F4F30930701209354
:207DE00006014F5F5F4F4617570718F38091C00085FDE5CE8091C00085FFF8CFE0CE81E029
:207E00000E94C73C67CE0E94763C803209F08CCE8091C00085FFFCCFF092C6008091C000F6
:207E200085FFFCCFE092C6008091C00085FFFCCFD092C6008091C00085FFFCCFC092C6003B
:207E40008091C00085FFFCCFB092C60043CEE0910601F091070194918091C00085FFFCCFA3
:207E60009093C6009CCF80E10E94C73C33CE0E94763C0E94763C182F0E94763C112309F433
:207E800083C0113009F484C08FE00E94C73C22CE80910C02816080930C02E5CE80910C0226
:207EA000816080930C0259CF809107018823880F880B8A2180930B0280910601909107019E
:207EC000880F991F90930701809306018091080280FF09C0809108029091090201969093AA
:207EE000090280930802F894F999FECF1127E0910601F0910701C8E0D1E0809108029091A1
:207F00000902103091F40091570001700130D9F303E000935700E895009157000170013067
:207F2000D9F301E100935700E895099019900091570001700130D9F301E000935700E8954C
:207F40001395103498F011270091570001700130D9F305E000935700E8950091570001707A
:207F60000130D9F301E100935700E8953296029709F0C7CF103011F00296E5CF11248091F8
:1E7F8000C00085FFB9CEBCCE8EE10E94C73CA2CD85E90E94C73C9ECDF894FFCF8000B3
:00000001FF
